:10000000FAC000000C94E9690C94146A0C943F6ADD
:100010000C946A6A0C94956A0C94C06A0C94EB6A0E
:100020000C94166B19C1000017C1000015C1000027
:1000300013C1000011C100000FC100000DC100007C
:100040000BC1000009C1000007C1000005C100008C
:1000500003C1000001C10000FFC000000C94416B0F
:10006000FBC000000C940B6E0C94416EF5C00000B8
:10007000F3C00000F1C00000EFC00000EDC00000C0
:10008000EBC00000E9C00000E7C00000E5C00000D0
:100090000C94976E0C94CD6EDFC000000C944E68EB
:1000A000DBC00000D9C00000D7C00000D5C00000F0
:1000B000D3C00000D1C00000CFC00000CDC0000000
:1000C000CBC00000C9C00000C7C000000C94236F63
:1000D0000C94596FC1C000000C94AF6F0C94E56F85
:1000E000BBC0000000000A0B02090C0D0E0807033C
:1000F00004010000000000000000000000000000FB
:1001000000000000000000000000000000000000EF
:1001100012111000000000000000000000000000AC
:100120000000000000000000000001021020200874
:100130000810204010204080020102010804020142
:1001400001020408102040808040201008040201B1
:10015000800402018040201008040201080402010A
:100160000102040810204080010204081020408091
:1001700005050505070508080808020202020A0A23
:100180000808040404040101010101010101030341
:10019000030303030303040707070C0C0C0C0C0CEC
:1001A0000C0C0202020206060606060606060B0BE9
:1001B0000B0B0B0B0B0B00002200250028002B0063
:1001C0002E003100340002010000050108010B017E
:1001D00000002100240027002A002D0030003300F9
:1001E00001010000040107010A019C04B9656A6E5F
:1001F000F66E826F0E7011241FBECFEFD1E2DEBF0C
:10020000CDBF00E00CBF14E0A0E0B2E0E2E4F1EE0C
:1002100000E00BBF02C007900D92AC39B107D9F7CF
:1002200023E1ACE9B4E001C01D92AF3FB207E1F7B2
:1002300010E0CBEFD0E000E006C021970109802F4D
:10024000FE010E948A70C53FD10780E00807A9F728
:100250000E9446600C949F70D3CE8EBD00000DB4FA
:1002600007FEFDCF8EB50895CF93C82F61E00E94A1
:10027000786C61E08C2FCF910C94B46C0C94026478
:100280007F928F929F92AF92BF92CF92DF92EF9226
:10029000FF920F931F93CF93DF93D82EB62EC72EC6
:1002A000E42EC22F8091D104882381F09FB7F89467
:1002B0008091D104813059F58DB38093CF042DB353
:1002C0008091D004809582238DBB9FBF82E58CBD39
:1002D00081E08DBD60E08D2D0E94B46CF12CC230A8
:1002E00009F43AC0C330B1F0C13009F04CC0CB2D95
:1002F000DC2D5801C501801B910B8E159F050CF05C
:1003000051C08991AADFF50181935F01F3CF9093EA
:10031000CF04DCCFCB2DDC2DB12CA12CAE14BF042F
:100320000CF040C088819980CA807B80249695DF3C
:10033000882E892D92DF982E8C2D8FDFC82E872D49
:100340008CDFF80180829182C28283830C5F1F4F11
:10035000FFEFAF1ABF0AE2CFCB2DDC2DB12CA12CC1
:10036000AE14BF04FCF488819980229676DFC82EF3
:10037000892D73DFF801C08281830E5F1F4FFFEF6D
:10038000AF1ABF0AEDCFCB2DDC2D5801C501801B64
:10039000910B8E159F0534F489915FDFF5018193F0
:1003A0005F01F4CF61E08D2D0E94B46C8091D10487
:1003B000882351F09FB7F8942091D1048091CF0405
:1003C000213081F48DBB9FBFDF91CF911F910F91A1
:1003D000FF90EF90DF90CF90BF90AF909F908F9065
:1003E0007F9008958FBFF0CF2091D104222381F018
:1003F0003FB7F8942091D104213069F42DB32093B4
:10040000CF044DB32091D004209524232DBB3FBFB2
:100410008CBD9DBD08953093CF04FACF8091D10457
:10042000882361F09FB7F8942091D1048091CF0484
:10043000213019F48DBB9FBF08958FBF0895CF93CE
:10044000C82F8091AF049091B004CEDF60E089E0C6
:100450000E94B46C83E001DF8C2FFFDE80E0FDDEC4
:10046000C82F61E089E00E94B46CD8DF8C2FCF9157
:100470000895CF93C82F8091AF049091B004B4DF5A
:1004800060E089E00E94B46C82E0E7DE8FE0E5DEA8
:100490008C2FE3DE61E089E00E94B46CCF91BECF87
:1004A000CF93C82F8091AF049091B0049DDF60E09E
:1004B00089E00E94B46C85E0D0DE8CE2CEDE8C2F29
:1004C000CCDE80E0CADE61E089E00E94B46CCF91AE
:1004D000A5CFBF92CF92DF92EF92FF920F931F931F
:1004E000CF93DF938CE2ABDF882391F185FF18C0B7
:1004F0008DE2A5DF90E081FB222720F9AC01559524
:100500004795559547954270242B74E095958795AE
:100510007A95E1F78C70822B80939E0480EEC0DF89
:100520008CE28DDF80FD1EC011E081FD1CC08FEFCD
:100530009FEFDC018093AB049093AC04A093AD04D7
:10054000B093AE041092AA041092A9041092A704CA
:10055000DF91CF911F910F91FF90EF90DF90CF909F
:10056000BF90089510E0C12FC295C07FD2E6DC0F86
:100570008D2F65DF83FB882780F98093AA0481E6AD
:100580008C0F5DDFC82E8D2F5ADF98E0C99E600169
:10059000112490E045E0959587954A95E1F7C82AA2
:1005A000D92A05E60C0F8091AA040D2C000CEE0848
:1005B000FF08882309F482C08D2F41DFB82E83E61F
:1005C0008C0F3DDFD82F84E68C0F39DF4B2D50E0A8
:1005D00070E060E0BA01552744274427552763702F
:1005E000772722E1CC0CDD1CEE1CFF1C2A95D1F7ED
:1005F000C82A4C295D296E297F29CD2ED12CDC2CCF
:10060000CC24F12CE12C4C295D296E297F294093C3
:10061000AB045093AC046093AD047093AE04802F90
:100620000EDF86FB882780F98093A904802F07DFDF
:100630008F708093A8049091A904992309F44BC06A
:100640001092A70481E001C0880F1A95EAF728DF0D
:100650008091AB049091AC04A091AD04B091AE0434
:100660008093B3049093B404A093B504B093B604FC
:1006700081E08093B1048091AA048093B2048091B8
:10068000A8048093B7048091A9048093B8041092C1
:10069000B9042091A70430E090E080E0FC01EF5421
:1006A000FB4F821793077CF5DC01A156BB4F4C91A1
:1006B000418701968830910589F74ACFC092AB04F3
:1006C000D092AC04E092AD04F092AE048D2FB7DE70
:1006D00082958170A9CF8093A704CA598FE9E82E2B
:1006E00084E0F82E2091A704C7018F599440281761
:1006F000190609F00CF4A6CF8C2FA1DEF701819327
:100700007F01CF5FEFCF1186D4CFCF92DF92EF92F0
:10071000FF92CF93DF93CDB7DEB7C850D1400FB66D
:10072000F894DEBF0FBECDBF28E031E0E0EAF2E092
:10073000DE01119601900D9221503040D9F7FE0153
:10074000319630E020E0C080D180E280F380A8E0E4
:10075000CA16D104E104F10479F5C480D580E6809D
:10076000F780B4EFCB16B1E0DB06E104F10421F52C
:10077000ABE0A29FF001A39FF00D1124389621E079
:1007800030E02C0F3D1FE20FF31F2081DC012C9382
:100790008181DB018C938281FA018083C85FDE4F07
:1007A0000FB6F894DEBF0FBECDBFDF91CF91FF90A3
:1007B000EF90DF90CF9008952F5F3F4F3B96283109
:1007C000310509F6EBCF8F929F92AF92BF92CF92F5
:1007D000DF92EF92FF920F931F93CF93DF93CDB7EA
:1007E000DEB7E1E0DC01EC93FB011082DA011D923F
:1007F0001D921D921C921397F90110821182128290
:100800001382D8011D921D921D921C921397F7011D
:100810001082D6011D921D921D921C921397F50114
:100820001082118212821382D4011D921D921D9298
:100830001C921397E889F98910821182128213821F
:10084000EA89FB891082118212821382DF91CF9193
:100850001F910F91FF90EF90DF90CF90BF90AF90DE
:100860009F908F90089580919D04089581E08093DA
:100870009D04089580E8FDDD8FE0E1DD8038D9F446
:1008800080E0F7DD8FE0DBDD811115C080919C04F5
:10089000811111C081E080939C0460E082E00E949D
:1008A000786C80E00E94386450E040E069E672E0D5
:1008B00080E00C9470690895CF92DF92EF92FF92DE
:1008C0000F931F93FB0170E060E0DB01AF54BB4F5F
:1008D0001996AC91A1936F5F7F4F68307105A9F7AE
:1008E0006091B704FA0160834091B104F90140833B
:1008F0002091B204F80120832091B804F7012083ED
:100900004091B3045091B4046091B5047091B60461
:10091000FC01408351836283738380919E04F601BE
:1009200080831092B1041F910F91FF90EF90DF90A0
:10093000CF90089589E00895EFEAF4E082E580839E
:1009400081E081830895CF92DF92EF92FF926B0155
:100950007C01C114D104E104F10469F48091000226
:10096000811109C080910202909103020E942A65C0
:1009700081E080930002C601880F991F880F991F9C
:1009800080509E4FFF90EF90DF90CF90089500979A
:1009900081F0FC012181211104C040EA56E861E0A8
:1009A00070E0FC01828193810E94396590E080E0D3
:1009B000089588E090E008954F925F926F927F9241
:1009C0008F929F92AF92BF92CF92DF92EF92FF925F
:1009D0000F931F93CF93DF930097C9F1280139013B
:1009E0007A01EC01402F8A819B810E94B7658A8140
:1009F0009B81DC01ED91FC910084F185E02D19953E
:100A0000892B01F16701812C912C54018A819B81F2
:100A1000DC01ED91FC910084F185E02D1995892B85
:100A200091F184149504A604B70469F18A819B812D
:100A3000DC01ED91FC910284F385E02D19958F3F47
:100A40009807C1F484E0F70111928A95E9F788E0EC
:100A500090E0DF91CF911F910F91FF90EF90DF9089
:100A6000CF90BF90AF909F908F907F906F905F904E
:100A70004F900895FFEF8F1A9F0AAF0ABF0AD60161
:100A80008D936D01C3CF90E080E0E3CF8F929F9272
:100A9000AF92BF92CF92DF92EF920F931F93CF93BB
:100AA000DF930097F1F06A01EC018A819B810E943B
:100AB0003C658A819B81DC01ED91FC910280F38190
:100AC000E02DA801B60119958A819B8160E0E110B3
:100AD00001C061E00E944665882389F0825082301F
:100AE00088F088E090E0DF91CF911F910F91EF9017
:100AF000DF90CF90BF90AF909F908F90089590E03F
:100B000080E0F1CF84E090E0EECF611102C00C9460
:100B1000786C6130E1F362E0FACF662319F061E0AE
:100B20000C94B46C60E0FCCF4F925F926F927F9216
:100B30008F929F92AF92BF92FF920F931F93CF938A
:100B4000DF93CDB7DEB72E970FB6F894DEBF0FBE9A
:100B5000CDBF10925C08812C912C5401839480921B
:100B6000580890925908A0925A08B0925B08E2DEA9
:100B7000682F70E090E080E00E94486260938308F4
:100B80007093840880938508909386086CDEF82E15
:100B900081110C945B0E80915E0890915F08A0918A
:100BA0006008B09161080197A105B10509F44BC037
:100BB0001092620880925E0890925F08A09260088E
:100BC000B0926108E5E7FAE081E090E0A0E0B0E0F3
:100BD00081939193A193B1932AE0E539F207C1F78C
:100BE00080E2E5E7FAE0A3E6B8E001900D928A958D
:100BF000E1F7609183087091840880918508909155
:100C000086080E945F604B015C0120E030E040E814
:100C100053E40E94AB6187FD02C00C94720E20E089
:100C200030E0A901C501B4010E949B6387FF02C0A7
:100C30000C94750EC501B4010E941C62862F14DB52
:100C400081E08093620893E6A92E98E0B92EF50121
:100C500081919191A191B1910197A105B10511F4F3
:100C60000C94780EE3E6F8E081E090E0A0E0B0E0DC
:100C700081939193A193B19328E0E338F207C1F7F0
:100C800080EC8E876091830870918408809185083C
:100C9000909186080E945F602B013C0120E030E0CB
:100CA00040E853E40E94AB6187FD02C00C94800EC3
:100CB00020E030E0A901C301B2010E949B6387FFDD
:100CC00002C00C94830EC301B2010E941C62862FE5
:100CD0008E01035F1F4F21E041E0BE01625F7F4F45
:100CE000CFDA80915E0890915F08A0916008B09182
:100CF00061080197A105B10509F451C0109262087D
:100D000081E090E0A0E0B0E080935E0890935F08FF
:100D1000A0936008B0936108EDE2F4E025E73AE0C3
:100D20008191482F880F550B660B770BD9014D9396
:100D30005D936D937D939D01B4E0E533FB0781F7EF
:100D400080E2E5E7FAE0A3E6B8E001900D928A952B
:100D5000E1F76091830870918408809185089091F3
:100D600086080E945F602B013C0120E030E040E8F3
:100D700053E40E94AB6187FFC9C720E030E0A901BE
:100D8000C301B2010E949B6387FDC2C7C301B201C8
:100D90000E941C62862F68DA81E0809362088DE2EF
:100DA000882E84E0982EF40123E638E0D9014D9195
:100DB0005D916D917D919D018191082E000C990BA3
:100DC000AA0BBB0B481759076A077B0709F4A2C790
:100DD00023E638E0EDE2F4E08191482F880F550BCF
:100DE000660B770BD9014D935D936D937D939D01B8
:100DF000B4E0E533FB0781F76091830870918408C4
:100E000080918508909186080E945F602B013C01CB
:100E100020E030E040E853E40E94AB6187FF80C7E8
:100E200020E030E0A901C301B2010E949B6387FD6D
:100E300079C7C301B2010E941C62862F8E01095F2F
:100E40001F4F21E043E06DEB73E01ADA80915E08FA
:100E500090915F08A0916008B09161080197A10589
:100E6000B10509F451C01092620881E090E0A0E061
:100E7000B0E080935E0890935F08A0936008B09301
:100E80006108EDE2F4E025E331E18191482F880F1C
:100E9000550B660B770BD9014D935D936D937D9345
:100EA0009D01B4E0E533FB0781F780E2E5E3F1E182
:100EB000A3E6B8E001900D928A95E1F7609183086E
:100EC0007091840880918508909186080E945F60E7
:100ED0002B013C0120E030E040E853E40E94AB618C
:100EE00087FF22C720E030E0A901C301B2010E94C0
:100EF0009B6387FD1BC7C301B2010E941C62862F42
:100F0000B3D981E080936208ADE2B4E08D0183E65D
:100F100098E0FC014190519061907190CF01F801EF
:100F200041918F01042E000C550B660B770B441674
:100F300055066606770609F4FBC6E3E6F8E04D9130
:100F4000042E000C550B660B770B41935193619364
:100F5000719324E0A533B20791F7609183087091F3
:100F6000840880918508909186080E945F602B011B
:100F70003C0120E030E040E853E40E94AB6187FF91
:100F8000DDC620E030E0A901C301B2010E949B63ED
:100F900087FDD6C6C301B2010E941C62862F8E0156
:100FA0000F5F1F4F21E043E06EEA73E069D98B8148
:100FB000803809F07EC61A861B861C86AE01445F07
:100FC0005F4FBE01655F7F4FCE010A969EDB8A852B
:100FD000811107C09B85911104C09C85992309F458
:100FE0002DC292E09C839AE29D838E8380915E085D
:100FF00090915F08A0916008B09161080197A105E8
:10100000B10509F451C01092620881E090E0A0E0BF
:10101000B0E080935E0890935F08A0936008B0935F
:10102000610825E73AE0EDE2F4E08191482F880F6E
:10103000550B660B770BD9014D935D936D937D93A3
:101040009D01B4E0E533FB0781F780E2E5E7FAE0D4
:10105000A3E6B8E001900D928A95E1F760918308CC
:101060007091840880918508909186080E945F6045
:101070002B013C0120E030E040E853E40E94AB61EA
:1010800087FF60C620E030E0A901C301B2010E94E1
:101090009B6387FD59C6C301B2010E941C62862F63
:1010A000E3D881E080936208EDE2F4E023E638E0E3
:1010B000D9014D915D916D917D919D018191082E98
:1010C000000C990BAA0BBB0B481759076A077B0743
:1010D00009F43CC623E638E0EDE2F4E08191482FC4
:1010E000880F550B660B770BD9014D935D936D936C
:1010F0007D939D01B4E0E533FB0781F760918308A0
:101100007091840880918508909186080E945F60A4
:101110002B013C0120E030E040E853E40E94AB6149
:1011200087FF1AC620E030E0A901C301B2010E9486
:101130009B6387FD13C6C301B2010E941C62862F08
:101140008E01095F1F4F21E043E0BE016C5F7F4FBE
:1011500097D882E08C8389E28D838B858E83809102
:101160005E0890915F08A0916008B09161080197B6
:10117000A105B10509F451C01092620881E090E028
:10118000A0E0B0E080935E0890935F08A0936008B1
:10119000B093610825E73AE0EDE2F4E08191482F51
:1011A000880F550B660B770BD9014D935D936D93AB
:1011B0007D939D01B4E0E533FB0781F780E2E5E72D
:1011C000FAE0A3E6B8E001900D928A95E1F760910C
:1011D00083087091840880918508909186080E9408
:1011E0005F602B013C0120E030E040E853E40E94C6
:1011F000AB6187FFB5C520E030E0A901C301B201B2
:101200000E949B6387FDAEC5C301B2010E941C62B0
:10121000862F2AD881E080936208EDE2F4E023E68D
:1012200038E0D9014D915D916D917D919D01819144
:10123000082E000C990BAA0BBB0B481759076A071D
:101240007B0709F491C523E638E0EDE2F4E08191F3
:10125000482F880F550B660B770BD9014D935D9383
:101260006D937D939D01B4E0E533FB0781F76091B9
:1012700083087091840880918508909186080E9467
:101280005F602B013C0120E030E040E853E40E9425
:10129000AB6187FF6FC520E030E0A901C301B20157
:1012A0000E949B6387FD68C5C301B2010E941C6256
:1012B000862F8E01095F1F4F21E043E0BE016C5F66
:1012C0007F4F0E94400182E08C8388E28D838C8571
:1012D0008E8380915E0890915F08A0916008B09124
:1012E00061080197A105B10509F452C01092620886
:1012F00081E090E0A0E0B0E080935E0890935F080A
:10130000A0936008B093610825E73AE0EDE2F4E0CD
:101310008191482F880F550B660B770BD9014D93A0
:101320005D936D937D939D01B4E0E533FB0781F7F9
:1013300080E2E5E7FAE0A3E6B8E001900D928A9535
:10134000E1F76091830870918408809185089091FD
:1013500086080E945F602B013C0120E030E040E8FD
:1013600053E40E94AB6187FF09C520E030E0A9018A
:10137000C301B2010E949B6387FD02C5C301B20194
:101380000E941C62862F0E94340181E080936208D3
:10139000EDE2F4E023E638E0D9014D915D916D91E5
:1013A0007D919D018191082E000C990BAA0BBB0B1E
:1013B000481759076A077B0709F4E4C423E638E0B5
:1013C000EDE2F4E08191482F880F550B660B770B07
:1013D000D9014D935D936D937D939D01B4E0E53309
:1013E000FB0781F7609183087091840880918508DC
:1013F000909186080E945F602B013C0120E030E064
:1014000040E853E40E94AB6187FFC2C420E030E0B3
:10141000A901C301B2010E949B6387FDBBC4C30144
:10142000B2010E941C62862F8E01095F1F4F21E0CE
:1014300043E0BE016C5F7F4F0E94400180915E08D7
:1014400090915F08A0916008B09161080197A10593
:10145000B10509F452C01092620881E090E0A0E06A
:10146000B0E080935E0890935F08A0936008B0930B
:10147000610825E73AE0EDE2F4E08191482F880F1A
:10148000550B660B770BD9014D935D936D937D934F
:101490009D01B4E0E533FB0781F780E2E5E7FAE080
:1014A000A3E6B8E001900D928A95E1F76091830878
:1014B0007091840880918508909186080E945F60F1
:1014C0002B013C0120E030E040E853E40E94AB6196
:1014D00087FF62C420E030E0A901C301B2010E948D
:1014E0009B6387FD5BC4C301B2010E941C62862F0F
:1014F0000E94340181E080936208EDE2F4E023E68B
:1015000038E0D9014D915D916D917D919D01819161
:10151000082E000C990BAA0BBB0B481759076A073A
:101520007B0709F43DC423E638E0EDE2F4E0819165
:10153000482F880F550B660B770BD9014D935D93A0
:101540006D937D939D01B4E0E533FB0781F76091D6
:1015500083087091840880918508909186080E9484
:101560005F602B013C0120E030E040E853E40E9442
:10157000AB6187FF1BC420E030E0A901C301B201C9
:101580000E949B6387FD14C4C301B2010E941C62C8
:10159000862F8E01095F1F4F21E043E06AEB73E065
:1015A0000E94400180915E0890915F08A0916008C0
:1015B000B09161080197A105B10509F452C01092DC
:1015C000620881E090E0A0E0B0E080935E08909334
:1015D0005F08A0936008B093610825E73AE0EDE268
:1015E000F4E08191482F880F550B660B770BD901DA
:1015F0004D935D936D937D939D01B4E0E533FB07BF
:1016000081F780E2E5E7FAE0A3E6B8E001900D9209
:101610008A95E1F76091830870918408809185082C
:10162000909186080E945F602B013C0120E030E031
:1016300040E853E40E94AB6187FFBCC320E030E088
:10164000A901C301B2010E949B6387FDB5C3C30119
:10165000B2010E941C62862F0E94340181E08093B7
:101660006208EDE2F4E023E638E0D9014D915D91A6
:101670006D917D919D018191082E000C990BAA0B13
:10168000BB0B481759076A077B0709F497C323E682
:1016900038E0EDE2F4E08191482F880F550B660B9E
:1016A000770BD9014D935D936D937D939D01B4E0CC
:1016B000E533FB0781F7609183087091840880917E
:1016C0008508909186080E945F602B013C0120E014
:1016D00030E040E853E40E94AB6187FF75C320E02F
:1016E00030E0A901C301B2010E949B6387FD6EC374
:1016F000C301B2010E941C62862F8E01095F1F4F39
:1017000021E043E067EB73E00E94400180915E08B6
:1017100090915F08A0916008B09161080197A105C0
:10172000B10509F452C01092620881E090E0A0E097
:10173000B0E080935E0890935F08A0936008B09338
:10174000610825E73AE0EDE2F4E08191482F880F47
:10175000550B660B770BD9014D935D936D937D937C
:101760009D01B4E0E533FB0781F780E2E5E7FAE0AD
:10177000A3E6B8E001900D928A95E1F760918308A5
:101780007091840880918508909186080E945F601E
:101790002B013C0120E030E040E853E40E94AB61C3
:1017A00087FF16C320E030E0A901C301B2010E9407
:1017B0009B6387FD0FC3C301B2010E941C62862F89
:1017C0000E94340181E080936208EDE2F4E023E6B8
:1017D00038E0D9014D915D916D917D919D0181918F
:1017E000082E000C990BAA0BBB0B481759076A0768
:1017F0007B0709F4F1C223E638E0EDE2F4E08191E1
:10180000482F880F550B660B770BD9014D935D93CD
:101810006D937D939D01B4E0E533FB0781F7609103
:1018200083087091840880918508909186080E94B1
:101830005F602B013C0120E030E040E853E40E946F
:10184000AB6187FFCFC220E030E0A901C301B20144
:101850000E949B6387FDC8C2C301B2010E941C6243
:10186000862F8E01095F1F4F21E043E064EB73E098
:101870000E94400180915E0890915F08A0916008ED
:10188000B09161080197A105B10509F452C0109209
:10189000620881E090E0A0E0B0E080935E08909361
:1018A0005F08A0936008B093610825E73AE0EDE295
:1018B000F4E08191482F880F550B660B770BD90107
:1018C0004D935D936D937D939D01B4E0E533FB07EC
:1018D00081F780E2E5E7FAE0A3E6B8E001900D9237
:1018E0008A95E1F76091830870918408809185085A
:1018F000909186080E945F602B013C0120E030E05F
:1019000040E853E40E94AB6187FF70C220E030E002
:10191000A901C301B2010E949B6387FD69C2C30193
:10192000B2010E941C62862F0E94340181E08093E4
:101930006208EDE2F4E023E638E0D9014D915D91D3
:101940006D917D919D018191082E000C990BAA0B40
:10195000BB0B481759076A077B0709F44BC2E3E63C
:10196000F8E0D4018D914D01082E000C990BAA0BC3
:10197000BB0B81939193A193B193B5E38B16B4E024
:101980009B0679F76091830870918408809185089F
:10199000909186080E945F602B013C0120E030E0BE
:1019A00040E853E40E94AB6187FF2AC220E030E0A8
:1019B000A901C301B2010E949B6387FD23C2C30139
:1019C000B2010E941C62862F8E01095F1F4F21E029
:1019D00043E061EB73E00E94400180915E089091CA
:1019E0005F08A0916008B09161080197A105B10559
:1019F00009F453C01092620881E090E0A0E0B0E0EA
:101A000080935E0890935F08A0936008B09361088C
:101A1000EDE2F4E025E131E145E354E08191482E27
:101A2000880F550866087708D9014D925D926D922E
:101A30007D929D014E175F0789F780E2E5E1F1E1B4
:101A4000A3E6B8E001900D928A95E1F760918308D2
:101A50007091840880918508909186080E945F604B
:101A60002B013C0120E030E040E853E40E94AB61F0
:101A700087FFCAC120E030E0A901C301B2010E9482
:101A80009B6387FDC3C1C301B2010E941C62862F04
:101A90000E94340181E080936208ADE2B4E085E306
:101AA00094E08D0123E638E0F90141905190619076
:101AB00071909F01F80141918F01042E000C550B8C
:101AC000660B770B441655066606770609F4A0C127
:101AD000E3E6F8E04D91042E000C550B660B770BF6
:101AE00041935193619371938A179B0799F7609182
:101AF00083087091840880918508909186080E94DF
:101B00005F602B013C0120E030E040E853E40E949C
:101B1000AB6187FF82C120E030E0A901C301B201BF
:101B20000E949B6387FD7BC1C301B2010E941C62BE
:101B3000862F8E010F5F1F4F21E043E06BEA73E0B9
:101B40000E94400180915E0890915F08A09160081A
:101B5000B09161080197A105B10509F453C0109235
:101B6000620881E090E0A0E0B0E080935E0890938E
:101B70005F08A0936008B0936108EDE2F4E025E906
:101B80003AE045E354E08191482E880F55086608F5
:101B90007708D9014D925D926D927D929D014E170D
:101BA0005F0789F780E2E5E9FAE0A3E6B8E0019093
:101BB0000D928A95E1F76091830870918408809175
:101BC0008508909186080E945F602B013C0120E00F
:101BD00030E040E853E40E94AB6187FF22C120E07F
:101BE00030E0A901C301B2010E949B6387FD1BC1C4
:101BF000C301B2010E941C62862F0E94340181E061
:101C000080936208ADE2B4E025E334E08D0183E621
:101C100098E0FC014190519061907190CF01F801E2
:101C200041918F01042E000C550B660B770B441667
:101C300055066606770609F4F8C04D91042E000C8F
:101C4000550B660B770BF50141935193619371939B
:101C50005F01F4E0A533BF0781F7609183087091BD
:101C6000840880918508909186080E945F604B01EE
:101C70005C0120E030E040E853E40E94AB6187FF64
:101C8000D9C020E030E0A901C501B4010E949B63E6
:101C900087FD05C0C501B4010E941C62F62E8E01AD
:101CA0000F5F1F4F21E043E068EA73E08F2D0E9431
:101CB00040010E94360481E080935C082E960FB6A6
:101CC000F894DEBF0FBECDBFDF91CF911F910F9172
:101CD000FF90BF90AF909F908F907F906F905F909C
:101CE0004F9008958FEF0C941F0680E00C941F0610
:101CF00088E0E338F80711F00C9428060C944006AD
:101D00008FEF0C94680680E00C9468068FEF43C850
:101D100080E041C884E0E533F80709F047C86CC8A3
:101D20008FEF8CC880E08AC88FEFEAC880E0E8C8EF
:101D3000E4E005331E0709F0ECC80FC98FEF2FC987
:101D400080E02DC98FEFACC980E0AAC984E0E533FB
:101D5000F80709F0ADC9D2C98FEFF2C980E0F0C928
:101D60008FEF57CA80E055CA84E0E533F80709F0E1
:101D700058CA7DCA8FEF9DCA80E09BCA8FEF03CB04
:101D800080E001CB84E0E533F80709F005CB2ACBEE
:101D90008FEF4ACB80E048CB8FEFAACB80E0A8CB77
:101DA00084E0E533F80709F0ACCBD1CB8FEFF1CB72
:101DB00080E0EFCB8FEF50CC80E04ECC84E0E53379
:101DC000F80709F052CC77CC8FEF97CC80E095CC18
:101DD0008FEFF6CC80E0F4CC84E0E533F80709F02F
:101DE000F8CC1DCD8FEF3DCD80E03BCD8FEF9CCD6E
:101DF00080E09ACD84E0E533F80709F09ECDC2CDAE
:101E00008FEFE2CD80E0E0CD8FEF42CE80E040CE9C
:101E10008E179F0709F048CE6ACE8FEF8ACE80E0FA
:101E200088CE8FEFEACE80E0E8CE2E173F0709F08C
:101E3000F0CE13CFFF24FA9432CFAF92BF92CF925D
:101E4000DF92EF92FF920F931F93CF93DF9300D017
:101E500000D0CDB7DEB782E0898389E18A836B83C6
:101E600080912C0890912D08A0912E08B0912F08F8
:101E70000197A105B10509F45AC01092300881E01C
:101E800090E0A0E0B0E080932C0890932D08A09300
:101E90002E08B0932F08EDE2F4E025ED39E08191B2
:101EA000482F880F550B660B770BD9014D935D9327
:101EB0006D937D939D01B4E0E533FB0781F780E2EC
:101EC000E5EDF9E0A1E3B8E001900D928A95E1F724
:101ED0006091510870915208809153089091540874
:101EE0000E945F606B017C01C0924D13D0924E1333
:101EF000E0924F13F092501320E030E040E853E4BA
:101F00000E94AB6187FF8BC020E030E0A901C701D0
:101F1000B6010E949B6387FD84C0C701B6010E9481
:101F20001C62862F0E94340181E08093300821E3F7
:101F300038E0ADE2B4E085E394E05D018901F801A9
:101F4000C190D190E190F1908F01F50141915F0135
:101F5000042E000C550B660B770BC416D506E6064F
:101F6000F70609F460C04D91042E000C550B660B6A
:101F7000770BF90141935193619371939F018A17F4
:101F80009B0789F76091510870915208809153081E
:101F90009091540860934D1370934E1380934F1398
:101FA000909350130E945F606B017C01C0924D13AF
:101FB000D0924E13E0924F13F092501320E030E095
:101FC00040E853E40E94AB6187FF32C020E030E07C
:101FD000A901C701B6010E949B6387FD2BC0C70101
:101FE000B6010E941C62862F8E010C5F1F4F21E0FC
:101FF00043E0BE016F5F7F4F0E94400126960FB6FF
:10200000F894DEBF0FBECDBFDF91CF911F910F912E
:10201000FF90EF90DF90CF90BF90AF9008958FEF3B
:1020200081CF80E07FCF8E179F0709F088CFAACF9E
:102030008FEFDACF80E0D8CFAF92BF92CF92DF920E
:10204000EF92FF920F931F93CF93DF9300D000D0B6
:10205000CDB7DEB782E0898388E18A836B83809184
:102060002C0890912D08A0912E08B0912F0801976F
:10207000A105B10509F45AC01092300881E090E042
:10208000A0E0B0E080932C0890932D08A0932E0838
:10209000B0932F08EDE2F4E025EF3AE08191482F6C
:1020A000880F550B660B770BD9014D935D936D939C
:1020B0007D939D01B4E0E533FB0781F780E2E5EF16
:1020C000FAE0A1E3B8E001900D928A95E1F7609102
:1020D00051087091520880915308909154080E94C1
:1020E0005F606B017C01C0926913D0926A13E09229
:1020F0006B13F0926C1320E030E040E853E40E9450
:10210000AB6187FF8BC020E030E0A901C701B601B9
:102110000E949B6387FD84C0C701B6010E941C62B8
:10212000862F0E94340181E08093300821E338E05B
:10213000ADE2B4E085E394E05D018901F801C1906E
:10214000D190E190F1908F01F50141915F01042E52
:10215000000C550B660B770BC416D506E606F70682
:1021600009F460C04D91042E000C550B660B770BE3
:10217000F90141935193619371939F018A179B07D2
:1021800089F760915108709152088091530890919D
:1021900054086093691370936A1380936B13909340
:1021A0006C130E945F606B017C01C0926913D09236
:1021B0006A13E0926B13F0926C1320E030E040E879
:1021C00053E40E94AB6187FF32C020E030E0A901F8
:1021D000C701B6010E949B6387FD2BC0C701B601F2
:1021E0000E941C62862F8E010C5F1F4F21E043E08E
:1021F000BE016F5F7F4F0E94400126960FB6F89494
:10220000DEBF0FBECDBFDF91CF911F910F91FF9029
:10221000EF90DF90CF90BF90AF9008958FEF81CF78
:1022200080E07FCF8E179F0709F088CFAACF8FEF6E
:10223000DACF80E0D8CFAF92BF92CF92DF92EF9209
:10224000FF920F931F93CF93DF9300D000D0CDB7B1
:10225000DEB782E0898385E18A836B8380912C08D5
:1022600090912D08A0912E08B0912F080197A105FB
:10227000B10509F45AC01092300881E090E0A0E066
:10228000B0E080932C0890932D08A0932E08B09373
:102290002F08EDE2F4E025E13BE08191482F880F23
:1022A000550B660B770BD9014D935D936D937D9321
:1022B0009D01B4E0E533FB0781F780E2E5E1FBE057
:1022C000A1E3B8E001900D928A95E1F76091510881
:1022D0007091520880915308909154080E945F6059
:1022E0006B017C01C0926D13D0926E13E0926F135C
:1022F000F092701320E030E040E853E40E94AB61BC
:1023000087FF8BC020E030E0A901C701B6010E9421
:102310009B6387FD84C0C701B6010E941C62862FA3
:102320000E94340181E08093300821E338E0ADE27F
:10233000B4E085E394E05D018901F801C190D1909A
:10234000E190F1908F01F50141915F01042E000CA5
:10235000550B660B770BC416D506E606F70609F48F
:1023600060C04D91042E000C550B660B770BF901E4
:1023700041935193619371939F018A179B0789F74A
:1023800060915108709152088091530890915408BF
:1023900060936D1370936E1380936F13909370130B
:1023A0000E945F606B017C01C0926D13D0926E132E
:1023B000E0926F13F092701320E030E040E853E4B5
:1023C0000E94AB6187FF32C020E030E0A901C70165
:1023D000B6010E949B6387FD2BC0C701B6010E9416
:1023E0001C62862F8E010C5F1F4F21E043E0BE016F
:1023F0006F5F7F4F0E94400126960FB6F894DEBFB4
:102400000FBECDBFDF91CF911F910F91FF90EF9045
:10241000DF90CF90BF90AF9008958FEF81CF80E095
:102420007FCF8E179F0709F088CFAACF8FEFDACF23
:1024300080E0D8CFAF92BF92CF92DF92EF92FF921F
:102440000F931F93CF93DF9300D000D0CDB7DEB7AB
:1024500082E0898384E18A836B8380912C08909148
:102460002D08A0912E08B0912F080197A105B10564
:1024700009F45AC01092300881E090E0A0E0B0E08A
:1024800080932C0890932D08A0932E08B0932F08CA
:10249000EDE2F4E025E33BE08191482F880F550BF6
:1024A000660B770BD9014D935D936D937D939D01E1
:1024B000B4E0E533FB0781F780E2E5E3FBE0A1E36D
:1024C000B8E001900D928A95E1F760915108709102
:1024D000520880915308909154080E945F606B01EC
:1024E0007C01C0927113D0927213E0927313F09238
:1024F000741320E030E040E853E40E94AB6187FFB2
:102500008BC020E030E0A901C701B6010E949B63A7
:1025100087FD84C0C701B6010E941C62862F0E94FD
:10252000340181E08093300821E338E0ADE2B4E08B
:1025300085E394E05D018901F801C190D190E190BB
:10254000F1908F01F50141915F01042E000C550BB4
:10255000660B770BC416D506E606F70609F460C0CD
:102560004D91042E000C550B660B770BF90141932E
:102570005193619371939F018A179B0789F760912B
:1025800051087091520880915308909154086093BB
:1025900071137093721380937313909374130E944A
:1025A0005F606B017C01C0927113D0927213E09254
:1025B0007313F092741320E030E040E853E40E947B
:1025C000AB6187FF32C020E030E0A901C701B6014E
:1025D0000E949B6387FD2BC0C701B6010E941C624D
:1025E000862F8E010C5F1F4F21E043E0BE016F5F1D
:1025F0007F4F0E94400126960FB6F894DEBF0FBEB3
:10260000CDBFDF91CF911F910F91FF90EF90DF90A1
:10261000CF90BF90AF9008958FEF81CF80E07FCFB4
:102620008E179F0709F088CFAACF8FEFDACF80E00F
:10263000D8CFAF92BF92CF92DF92EF92FF920F93DB
:102640001F93CF93DF9300D000D0CDB7DEB782E0E9
:10265000898381E18A836B8380912C0890912D0876
:10266000A0912E08B0912F080197A105B10509F49A
:102670005AC01092300881E090E0A0E0B0E0809372
:102680002C0890932D08A0932E08B0932F08EDE20C
:10269000F4E025E53BE08191482F880F550B660B50
:1026A000770BD9014D935D936D937D939D01B4E0BC
:1026B000E533FB0781F780E2E5E5FBE0A1E3B8E065
:1026C00001900D928A95E1F760915108709152083E
:1026D00080915308909154080E945F606B017C01C7
:1026E000C0927513D0927613E0927713F09278131C
:1026F00020E030E040E853E40E94AB6187FF8BC0EC
:1027000020E030E0A901C701B6010E949B6387FD6C
:1027100084C0C701B6010E941C62862F0E9434014A
:1027200081E08093300821E338E0ADE2B4E085E356
:1027300094E05D018901F801C190D190E190F190A0
:102740008F01F50141915F01042E000C550B660BC2
:10275000770BC416D506E606F70609F460C04D915E
:10276000042E000C550B660B770BF9014193519326
:10277000619371939F018A179B0789F760915108B4
:10278000709152088091530890915408609375138A
:102790007093761380937713909378130E945F6001
:1027A0006B017C01C0927513D0927613E09277137F
:1027B000F092781320E030E040E853E40E94AB61EF
:1027C00087FF32C020E030E0A901C701B6010E94B6
:1027D0009B6387FD2BC0C701B6010E941C62862F38
:1027E0008E010C5F1F4F21E043E0BE016F5F7F4F02
:1027F0000E94400126960FB6F894DEBF0FBECDBFF3
:10280000DF91CF911F910F91FF90EF90DF90CF90CC
:10281000BF90AF9008958FEF81CF80E07FCF8E176C
:102820009F0709F088CFAACF8FEFDACF80E0D8CF0B
:10283000AF92BF92CF92DF92EF92FF920F931F93CE
:10284000CF93DF9300D000D0CDB7DEB782E089838D
:1028500080E18A836B8380912C0890912D08A09150
:102860002E08B0912F080197A105B10509F45AC0AF
:102870001092300881E090E0A0E0B0E080932C0856
:1028800090932D08A0932E08B0932F08EDE2F4E06A
:1028900025E73BE08191482F880F550B660B770B9E
:1028A000D9014D935D936D937D939D01B4E0E53324
:1028B000FB0781F780E2E5E7FBE0A1E3B8E00190E8
:1028C0000D928A95E1F760915108709152088091BC
:1028D0005308909154080E945F606B017C01C09284
:1028E0007913D0927A13E0927B13F0927C1320E05C
:1028F00030E040E853E40E94AB6187FF8BC020E0EA
:1029000030E0A901C701B6010E949B6387FD84C026
:10291000C701B6010E941C62862F0E94340181E02B
:102920008093300821E338E0ADE2B4E085E394E041
:102930005D018901F801C190D190E190F1908F0182
:10294000F50141915F01042E000C550B660B770BCE
:10295000C416D506E606F70609F460C04D91042EAC
:10296000000C550B660B770BF90141935193619362
:1029700071939F018A179B0789F7609151087091A5
:102980005208809153089091540860937913709382
:102990007A1380937B1390937C130E945F606B018A
:1029A0007C01C0927913D0927A13E0927B13F0925B
:1029B0007C1320E030E040E853E40E94AB6187FFE5
:1029C00032C020E030E0A901C701B6010E949B633C
:1029D00087FD2BC0C701B6010E941C62862F8E01A5
:1029E0000C5F1F4F21E043E0BE016F5F7F4F0E94ED
:1029F000400126960FB6F894DEBF0FBECDBFDF9123
:102A0000CF911F910F91FF90EF90DF90CF90BF90EB
:102A1000AF9008958FEF81CF80E07FCF8E179F0713
:102A200009F088CFAACF8FEFDACF80E0D8CFAF926E
:102A3000BF92CF92DF92EF92FF920F931F93CF93AB
:102A4000DF9300D000D0CDB7DEB782E0898389E084
:102A50008A836B8380912C0890912D08A0912E0879
:102A6000B0912F080197A105B10509F45AC0109241
:102A7000300881E090E0A0E0B0E080932C089093D3
:102A80002D08A0932E08B0932F08EDE2F4E025E97D
:102A90003BE08191482F880F550B660B770BD901CE
:102AA0004D935D936D937D939D01B4E0E533FB07FA
:102AB00081F780E2E5E9FBE0A1E3B8E001900D9247
:102AC0008A95E1F7609151087091520880915308FE
:102AD000909154080E945F606B017C01C0927D134D
:102AE000D0927E13E0927F13F092801320E030E0CA
:102AF00040E853E40E94AB6187FF8BC020E030E0E8
:102B0000A901C701B6010E949B6387FD84C0C7016C
:102B1000B6010E941C62862F0E94340181E08093DE
:102B2000300821E338E0ADE2B4E085E394E05D01F4
:102B30008901F801C190D190E190F1908F01F501E8
:102B400041915F01042E000C550B660B770BC416E8
:102B5000D506E606F70609F460C04D91042E000C78
:102B6000550B660B770BF901419351936193719368
:102B70009F018A179B0789F760915108709152084D
:102B8000809153089091540860937D1370937E1345
:102B900080937F13909380130E945F606B017C0190
:102BA000C0927D13D0927E13E0927F13F092801337
:102BB00020E030E040E853E40E94AB6187FF32C080
:102BC00020E030E0A901C701B6010E949B6387FDA8
:102BD0002BC0C701B6010E941C62862F8E010C5FBC
:102BE0001F4F21E043E0BE016F5F7F4F0E94400115
:102BF00026960FB6F894DEBF0FBECDBFDF91CF9102
:102C00001F910F91FF90EF90DF90CF90BF90AF900A
:102C100008958FEF81CF80E07FCF8E179F0709F057
:102C200088CFAACF8FEFDACF80E0D8CFAF92BF9214
:102C3000CF92DF92EF92FF920F931F93CF93DF9388
:102C400000D000D0CDB7DEB782E0898388E08A83E8
:102C50006B8380912C0890912D08A0912E08B09143
:102C60002F080197A105B10509F45AC01092300848
:102C700081E090E0A0E0B0E080932C0890932D08D4
:102C8000A0932E08B0932F08EDE2F4E025EB3BE093
:102C90008191482F880F550B660B770BD9014D9307
:102CA0005D936D937D939D01B4E0E533FB0781F760
:102CB00080E2E5EBFBE0A1E3B8E001900D928A959C
:102CC000E1F76091510870915208809153089091FA
:102CD00054080E945F606B017C01C0928113D09206
:102CE0008213E0928313F092841320E030E040E8F6
:102CF00053E40E94AB6187FF8BC020E030E0A90164
:102D0000C701B6010E949B6387FD84C0C701B6015D
:102D10000E941C62862F0E94340181E0809330085B
:102D200021E338E0ADE2B4E085E394E05D018901A0
:102D3000F801C190D190E190F1908F01F50141919E
:102D40005F01042E000C550B660B770BC416D506DD
:102D5000E606F70609F460C04D91042E000C550BF1
:102D6000660B770BF90141935193619371939F0126
:102D70008A179B0789F760915108709152088091DA
:102D80005308909154086093811370938213809339
:102D90008313909384130E945F606B017C01C09247
:102DA0008113D0928213E0928313F092841320E077
:102DB00030E040E853E40E94AB6187FF32C020E07E
:102DC00030E0A901C701B6010E949B6387FD2BC0BB
:102DD000C701B6010E941C62862F8E010C5F1F4F37
:102DE00021E043E0BE016F5F7F4F0E9440012696C5
:102DF0000FB6F894DEBF0FBECDBFDF91CF911F910C
:102E00000F91FF90EF90DF90CF90BF90AF9008951B
:102E10008FEF81CF80E07FCF8E179F0709F088CF9B
:102E2000AACF8FEFDACF80E0D8CFAF92BF92CF9208
:102E3000DF92EF92FF920F931F93CF93DF9300D017
:102E400000D0CDB7DEB782E0898385E28A836B83C9
:102E500080912C0890912D08A0912E08B0912F08F8
:102E60000197A105B10509F45AC01092300881E01C
:102E700090E0A0E0B0E080932C0890932D08A09300
:102E80002E08B0932F08EDE2F4E025ED3BE08191B0
:102E9000482F880F550B660B770BD9014D935D9327
:102EA0006D937D939D01B4E0E533FB0781F780E2EC
:102EB000E5EDFBE0A1E3B8E001900D928A95E1F722
:102EC0006091510870915208809153089091540874
:102ED0000E945F606B017C01C0928513D0928613C3
:102EE000E0928713F092881320E030E040E853E44A
:102EF0000E94AB6187FF8BC020E030E0A901C701D1
:102F0000B6010E949B6387FD84C0C701B6010E9481
:102F10001C62862F0E94340181E08093300821E3F7
:102F200038E0ADE2B4E085E394E05D018901F801A9
:102F3000C190D190E190F1908F01F50141915F0135
:102F4000042E000C550B660B770BC416D506E6064F
:102F5000F70609F460C04D91042E000C550B660B6A
:102F6000770BF90141935193619371939F018A17F4
:102F70009B0789F76091510870915208809153081E
:102F800090915408609385137093861380938713F0
:102F9000909388130E945F606B017C01C09285133F
:102FA000D0928613E0928713F092881320E030E0ED
:102FB00040E853E40E94AB6187FF32C020E030E07C
:102FC000A901C701B6010E949B6387FD2BC0C70101
:102FD000B6010E941C62862F8E010C5F1F4F21E0FC
:102FE00043E0BE016F5F7F4F0E94400126960FB6FF
:102FF000F894DEBF0FBECDBFDF91CF911F910F912F
:10300000FF90EF90DF90CF90BF90AF9008958FEF3B
:1030100081CF80E07FCF8E179F0709F088CFAACF9E
:103020008FEFDACF80E0D8CFAF92BF92CF92DF920E
:10303000EF92FF920F931F93CF93DF9300D000D0B6
:10304000CDB7DEB782E0898384E28A836B83809187
:103050002C0890912D08A0912E08B0912F0801976F
:10306000A105B10509F45AC01092300881E090E042
:10307000A0E0B0E080932C0890932D08A0932E0838
:10308000B0932F08EDE2F4E025EF3BE08191482F6B
:10309000880F550B660B770BD9014D935D936D939C
:1030A0007D939D01B4E0E533FB0781F780E2E5EF16
:1030B000FBE0A1E3B8E001900D928A95E1F7609101
:1030C00051087091520880915308909154080E94C1
:1030D0005F606B017C01C0928913D0928A13E092E9
:1030E0008B13F0928C1320E030E040E853E40E9410
:1030F000AB6187FF8BC020E030E0A901C701B601BA
:103100000E949B6387FD84C0C701B6010E941C62B8
:10311000862F0E94340181E08093300821E338E05B
:10312000ADE2B4E085E394E05D018901F801C1906E
:10313000D190E190F1908F01F50141915F01042E52
:10314000000C550B660B770BC416D506E606F70682
:1031500009F460C04D91042E000C550B660B770BE3
:10316000F90141935193619371939F018A179B07D2
:1031700089F760915108709152088091530890919D
:1031800054086093891370938A1380938B139093E0
:103190008C130E945F606B017C01C0928913D092F6
:1031A0008A13E0928B13F0928C1320E030E040E819
:1031B00053E40E94AB6187FF32C020E030E0A901F8
:1031C000C701B6010E949B6387FD2BC0C701B601F2
:1031D0000E941C62862F8E010C5F1F4F21E043E08E
:1031E000BE016F5F7F4F0E94400126960FB6F89494
:1031F000DEBF0FBECDBFDF91CF911F910F91FF902A
:10320000EF90DF90CF90BF90AF9008958FEF81CF78
:1032100080E07FCF8E179F0709F088CFAACF8FEF6E
:10322000DACF80E0D8CF2F923F924F925F926F9289
:103230007F928F929F92AF92BF92CF92DF92EF9246
:10324000FF920F931F93CF93DF9300D000D000D055
:103250001F92CDB7DEB73B01A7E07A224901B7E064
:103260009B22E7E0FE22F7E0BF22C8A0D9A027E01A
:10327000D22280912C0890912D08A0912E08B09117
:103280002F080197A105B10509F45EC0109230081E
:1032900081E090E0A0E0B0E080932C0890932D08AE
:1032A000A0932E08B0932F08EDE2F4E025EB39E06F
:1032B0008191482F880F550B660B770BD9014D93E1
:1032C0005D936D937D939D01B4E0E533FB0781F73A
:1032D00080E2E5EBF9E0A1E3B8E001900D928A9578
:1032E000E1F76091510870915208809153089091D4
:1032F00054080E945F601B012C01209249133092F8
:103300004A1340924B1350924C1320E030E040E8B7
:1033100053E40E94AB6187FD02C00C94DA2120E0E7
:1033200030E0A901C201B1010E949B6387FF02C086
:103330000C94DD21C201B1010E941C62862F0E9403
:10334000340181E080933008E1E3F8E0FA87E9870F
:103350008DE294E098878F83FC0121E338E0D90166
:103360004D915D916D917D919D018191082E000C93
:10337000990BAA0BBB0B481759076A077B0711F477
:103380000C94E02121E338E0EDE2F4E08191482F54
:10339000880F550B660B770BD9014D935D936D9399
:1033A0007D939D01B4E0E533FB0781F760915108FF
:1033B000709152088091530890915408609349137A
:1033C00070934A1380934B1390934C130E945F6049
:1033D0001B012C012092491330924A1340924B1347
:1033E00050924C1320E030E040E853E40E94AB617F
:1033F00087FFEEC720E030E0A901C201B1010E94C1
:103400009B6387FDE7C7C201B1010E941C62862F42
:103410008E010C5F1F4F21E043E061EE73E00E94DC
:103420004001B301A3E076956795AA95E1F790E096
:1034300080E0FADDB301B5E0660F771FBA95E1F7DA
:103440007727072E000C880B990BEFDC80912C0856
:1034500090912D08A0912E08B0912F080197A105F9
:10346000B10509F45AC01092300881E090E0A0E064
:10347000B0E080932C0890932D08A0932E08B09371
:103480002F0825EB39E0EDE2F4E08191482F880F19
:10349000550B660B770BD9014D935D936D937D931F
:1034A0009D01B4E0E533FB0781F780E2E5EBF9E04D
:1034B000A1E3B8E001900D928A95E1F7609151087F
:1034C0007091520880915308909154080E945F6057
:1034D0002B013C014092491350924A1360924B13C6
:1034E00070924C1320E030E040E853E40E94AB615E
:1034F00087FF72C720E030E0A901C301B2010E943A
:103500009B6387FD6BC7C301B2010E941C62862FBB
:103510000E94340181E080933008EDE2F4E021E381
:1035200038E0D9014D915D916D917D919D01819121
:10353000082E000C990BAA0BBB0B481759076A07FA
:103540007B0709F44DC721E338E0EDE2F4E0819117
:10355000482F880F550B660B770BD9014D935D9360
:103560006D937D939D01B4E0E533FB0781F7609196
:1035700051087091520880915308909154086093BB
:10358000491370934A1380934B1390934C130E94EA
:103590005F602B013C014092491350924A136092A4
:1035A0004B1370924C1320E030E040E853E40E944B
:1035B000AB6187FF1BC720E030E0A901C301B20166
:1035C0000E949B6387FD14C7C301B2010E941C6265
:1035D000862F8E010C5F1F4F21E043E06EED73E0FC
:1035E0000E94400180912C0890912D08A0912E08F6
:1035F000B0912F080197A105B10509F45AC01092A6
:10360000300881E090E0A0E0B0E080932C08909337
:103610002D08A0932E08B0932F0825EB39E0EDE29A
:10362000F4E08191482F880F550B660B770BD90179
:103630004D935D936D937D939D01B4E0E533FB075E
:1036400081F780E2E5EBF9E0A1E3B8E001900D92AB
:103650008A95E1F760915108709152088091530862
:10366000909154080E945F602B013C0140924913E5
:1036700050924A1360924B1370924C1320E030E04A
:1036800040E853E40E94AB6187FFB4C620E030E01D
:10369000A901C301B2010E949B6387FDADC6C301AE
:1036A000B2010E941C62862F0E94340181E0809347
:1036B0003008EDE2F4E021E338E0D9014D915D916D
:1036C0006D917D919D018191082E000C990BAA0BA3
:1036D000BB0B481759076A077B0709F48FC6E1E35C
:1036E000F8E0AF81B8858D91B887AF83082E000CC4
:1036F000990BAA0BBB0B81939193A193B1938F81EB
:1037000098858553944069F76091510870915208EB
:1037100080915308909154086093491370934A1311
:1037200080934B1390934C130E945F602B013C01DC
:103730004092491350924A1360924B1370924C136B
:1037400020E030E040E853E40E94AB6187FF5CC6B4
:1037500020E030E0A901C301B2010E949B6387FD14
:1037600055C6C301B2010E941C62862F8E010C5FF8
:103770001F4F21E043E06BED73E00E944001B40174
:10378000E3E076956795EA95E1F790E080E04EDA20
:10379000B401F5E0660F771FFA95E1F77727072E5A
:1037A000000C880B990B43D980912C0890912D081F
:1037B000A0912E08B0912F080197A105B10509F439
:1037C00052C01092300881E090E0A0E0B0E0809319
:1037D0002C0890932D08A0932E08B0932F08EDE2AB
:1037E000F4E025EF3EE08191482F880F550B660BE2
:1037F000770BD9014D935D936D937D939D01B4E05B
:10380000E533FB0781F780E2E5EFFEE0A1E3B8E0F6
:1038100001900D928A95E1F76091510870915208DC
:1038200080915308909154080E945F602B013C01E5
:1038300020E030E040E853E40E94AB6187FFE8C538
:1038400020E030E0A901C301B2010E949B6387FD23
:10385000E1C5C301B2010E941C62862F0E9434019F
:1038600081E080933008ADE2B4E025E334E08D01DF
:1038700081E398E0FC014190519061907190CF01FB
:10388000F80141918F01042E000C550B660B770B4C
:10389000441655066606770609F4BEC5E1E3F8E06E
:1038A0004D91042E000C550B660B770B41935193F1
:1038B0006193719324E0A533B20791F760915108A9
:1038C0007091520880915308909154080E945F6053
:1038D0002B013C0120E030E040E853E40E94AB6162
:1038E00087FF9FC520E030E0A901C301B2010E941B
:1038F0009B6387FD98C5C301B2010E941C62862F9D
:103900008E010F5F1F4F21E043E068ED73E00E94DE
:10391000400180912C0890912D08A0912E08B09123
:103920002F080197A105B10509F452C01092300883
:1039300081E090E0A0E0B0E080932C0890932D0807
:10394000A0932E08B0932F08EDE2F4E025ED3EE0C1
:103950008191482F880F550B660B770BD9014D933A
:103960005D936D937D939D01B4E0E533FB0781F793
:1039700080E2E5EDFEE0A1E3B8E001900D928A95CA
:10398000E1F760915108709152088091530890912D
:1039900054080E945F602B013C0120E030E040E8C9
:1039A00053E40E94AB6187FF40C520E030E0A901ED
:1039B000C301B2010E949B6387FD39C5C301B201F7
:1039C0000E941C62862F0E94340181E0809330089F
:1039D000ADE2B4E025E334E08D0181E398E0FC0141
:1039E0004190519061907190CF01F80141918F0108
:1039F000042E000C550B660B770B44165506660615
:103A0000770609F416C5E1E3F8E04D91042E000CA9
:103A1000550B660B770B419351936193719324E09F
:103A2000A533B20791F760915108709152088091C7
:103A30005308909154080E945F602B013C0120E0E4
:103A400030E040E853E40E94AB6187FFF7C420E018
:103A500030E0A901C301B2010E949B6387FDF0C45D
:103A6000C301B2010E941C62862F8E010F5F1F4F9F
:103A700021E043E065ED73E00E944001B70143E0BF
:103A8000769567954A95E1F790E080E00E941814DA
:103A9000B70155E0660F771F5A95E1F77727072E94
:103AA000000C880B990B0E94191380912C0890919F
:103AB0002D08A0912E08B0912F080197A105B105FE
:103AC00009F453C01092300881E090E0A0E0B0E02B
:103AD00080932C0890932D08A0932E08B0932F0864
:103AE000EDE2F4E025EB3EE045E354E08191482E21
:103AF000880F550866087708D9014D925D926D923E
:103B00007D929D014E175F0789F780E2E5EBFEE0AD
:103B1000A1E3B8E001900D928A95E1F76091510818
:103B20007091520880915308909154080E945F60F0
:103B30002B013C0120E030E040E853E40E94AB61FF
:103B400087FF80C420E030E0A901C301B2010E94D8
:103B50009B6387FD79C4C301B2010E941C62862F5A
:103B60000E94340181E080933008ADE2B4E085E347
:103B700094E08D0121E338E0F9014190519061908A
:103B800071909F01F80141918F01042E000C550B9B
:103B9000660B770B441655066606770609F456C47D
:103BA000E1E3F8E04D91042E000C550B660B770B0A
:103BB00041935193619371938A179B0799F7609191
:103BC00051087091520880915308909154080E94B6
:103BD0005F602B013C0120E030E040E853E40E94AC
:103BE000AB6187FF38C420E030E0A901C301B20116
:103BF0000E949B6387FD31C4C301B2010E941C6215
:103C0000862F8E010F5F1F4F21E043E062ED73E0CE
:103C10000E94400180912C0890912D08A0912E08BF
:103C2000B0912F080197A105B10509F453C0109276
:103C3000300881E090E0A0E0B0E080932C08909301
:103C40002D08A0932E08B0932F08EDE2F4E025E9AB
:103C50003EE045E354E08191482E880F5508660800
:103C60007708D9014D925D926D927D929D014E171C
:103C70005F0789F780E2E5E9FEE0A1E3B8E00190A3
:103C80000D928A95E1F760915108709152088091E8
:103C90005308909154080E945F602B013C0120E082
:103CA00030E040E853E40E94AB6187FFD8C320E0D6
:103CB00030E0A901C301B2010E949B6387FDD1C31B
:103CC000C301B2010E941C62862F0E94340181E070
:103CD00080933008ADE2B4E08D0181E398E0FC010F
:103CE0004190519061907190CF01F80141918F0105
:103CF000042E000C550B660B770B44165506660612
:103D0000770609F4B0C3E1E3F8E04D91042E000C0E
:103D1000550B660B770B419351936193719324E09C
:103D2000A533B20791F760915108709152088091C4
:103D30005308909154080E945F602B013C0120E0E1
:103D400030E040E853E40E94AB6187FF92C320E07B
:103D500030E0A901C301B2010E949B6387FD8BC3C0
:103D6000C301B2010E941C62862F8E010F5F1F4F9C
:103D700021E043E06FEC73E00E944001B50123E0D5
:103D8000769567952A95E1F790E080E00E941A12F7
:103D9000B50135E0660F771F3A95E1F77727072ED3
:103DA000000C880B990B0E941B1180912C0890919C
:103DB0002D08A0912E08B0912F080197A105B105FB
:103DC00009F453C01092300881E090E0A0E0B0E028
:103DD00080932C0890932D08A0932E08B0932F0861
:103DE000EDE2F4E025E73EE045E354E08191882EE2
:103DF000880F9908AA08BB08D9018D929D92AD92AF
:103E0000BD929D014E175F0789F780E2E5E7FEE06E
:103E1000A1E3B8E001900D928A95E1F76091510815
:103E20007091520880915308909154080E945F60ED
:103E30004B015C0120E030E040E853E40E94AB61BC
:103E400087FF1BC320E030E0A901C501B4010E9437
:103E50009B6387FD14C3C501B4010E941C62862FB9
:103E60000E94340181E080933008ADE2B4E08D011E
:103E700081E398E0FC0181909190A190B190CF01F5
:103E8000F80141918F01042E000C550B660B770B46
:103E900084169506A606B70609F4F3C2E1E3F8E036
:103EA0004D91042E000C550B660B770B41935193EB
:103EB0006193719324E0A533B20791F760915108A3
:103EC0007091520880915308909154080E945F604D
:103ED0004B015C0120E030E040E853E40E94AB611C
:103EE00087FFD5C220E030E0A901C501B4010E94DE
:103EF0009B6387FDCEC2C501B4010E941C62862F60
:103F00008E010F5F1F4F21E043E06CEC73E00E94D5
:103F1000400180912C0890912D08A0912E08B0911D
:103F20002F080197A105B10509F453C0109230087C
:103F300081E090E0A0E0B0E080932C0890932D0801
:103F4000A0932E08B0932F08EDE2F4E025E53EE0C3
:103F500045E354E08191882E880F9908AA08BB0890
:103F6000D9018D929D92AD92BD929D014E175F0732
:103F700089F780E2E5E5FEE0A1E3B8E001900D926B
:103F80008A95E1F760915108709152088091530829
:103F9000909154080E945F604B015C0120E030E08A
:103FA00040E853E40E94AB6187FF75C220E030E037
:103FB000A901C501B4010E949B6387FD6EC2C501C2
:103FC000B4010E941C62862F0E94340181E080931C
:103FD0003008ADE2B4E085E394E08D0121E338E000
:103FE000F90181909190A190B1909F01F8014191C8
:103FF0008F01042E000C550B660B770B841695066B
:10400000A606B70609F44BC2E1E3F8E04D91042E91
:10401000000C550B660B770B419351936193719391
:104020008A179B0799F76091510870915208809107
:104030005308909154080E945F604B015C0120E09E
:1040400030E040E853E40E94AB6187FF2DC220E0DE
:1040500030E0A901C501B4010E949B6387FD26C21F
:10406000C501B4010E941C62862F8E010F5F1F4F95
:1040700021E043E069EC73E00E944001B60183E077
:10408000769567958A95E1F790E080E00E941C1094
:10409000B60195E0660F771F9A95E1F77727072E0F
:1040A000000C880B990B0E941D0F80912C08909199
:1040B0002D08A0912E08B0912F080197A105B105F8
:1040C00009F452C01092300881E090E0A0E0B0E026
:1040D00080932C0890932D08A0932E08B0932F085E
:1040E000EDE2F4E025E33EE08191482F880F550B87
:1040F000660B770BD9014D935D936D937D939D0175
:10410000B4E0E533FB0781F780E2E5E3FEE0A1E3FD
:10411000B8E001900D928A95E1F760915108709195
:10412000520880915308909154080E945F606B017F
:104130007C0120E030E040E853E40E94AB6187FF5F
:10414000B7C120E030E0A901C701B6010E949B631E
:1041500087FDB0C1C701B6010E941C62862F0E9474
:10416000340181E080933008ADE2B4E085E394E06F
:104170008D0121E338E0F901C190D190E190F190F7
:104180009F01F80141918F01042E000C550B660B25
:10419000770BC416D506E606F70609F48DC1E1E3F0
:1041A000F8E04D91042E000C550B660B770B4193F4
:1041B0005193619371938A179B0799F76091510806
:1041C0007091520880915308909154080E945F604A
:1041D0006B017C0120E030E040E853E40E94AB61D9
:1041E00087FF6FC120E030E0A901C701B6010E943E
:1041F0009B6387FD68C1C701B6010E941C62862FC0
:104200008E010F5F1F4F21E043E066EC73E00E94D8
:10421000400180912C0890912D08A0912E08B0911A
:104220002F080197A105B10509F453C01092300879
:1042300081E090E0A0E0B0E080932C0890932D08FE
:10424000A0932E08B0932F08EDE2F4E025E13EE0C4
:1042500045E354E08191C82E880FDD08EE08FF0881
:10426000D901CD92DD92ED92FD929D014E175F072F
:1042700089F780E2E5E1FEE0A1E3B8E001900D926C
:104280008A95E1F760915108709152088091530826
:10429000909154080E945F606B017C0120E030E047
:1042A00040E853E40E94AB6187FF0FC120E030E09B
:1042B000A901C701B6010E949B6387FD08C1C70120
:1042C000B6010E941C62862F0E94340181E0809317
:1042D0003008ADE2B4E025E334E08D0181E398E0FD
:1042E000FC01C190D190E190F190CF01F801419192
:1042F0008F01042E000C550B660B770BC416D506E8
:10430000E606F70609F4E5C04D91042E000C550BA6
:10431000660B770BE985FA8541935193619371930D
:10432000FA87E987F4E0A533BF0771F76091510878
:104330007091520880915308909154080E945F60D8
:104340006B017C0120E030E040E853E40E94AB6167
:1043500087FFC4C020E030E0A901C701B6010E9478
:104360009B6387FDBDC0C701B6010E941C62862FFA
:104370008E010F5F1F4F21E043E063EC73E00E946A
:1043800040012A960FB6F894DEBF0FBECDBFDF9175
:10439000CF911F910F91FF90EF90DF90CF90BF9042
:1043A000AF909F908F907F906F905F904F903F90D5
:1043B0002F9008958FEF0C949F1980E00C949F1913
:1043C00084E0E533F80711F00C94AF190C94D6197A
:1043D0008FEF1EC880E01CC88FEF9AC880E098C895
:1043E00084E0E533F80709F09CC8C1C88FEFF1C835
:1043F00080E0EFC88FEF58C980E056C9B4E0E533DC
:10440000FB0709F05AC980C98FEFB0C980E0AEC977
:104410008FEF24CA80E022CA2E173F0709F02ACA6C
:104420004DCA8FEF6DCA80E06BCA8FEFCCCA80E0B7
:10443000CACA2E173F0709F0D2CAF5CA8FEF15CBAB
:1044400080E013CB8FEF8CCB80E08ACB8E179F0759
:1044500009F092CBB4CB8FEFD4CB80E0D2CB8FEFEF
:1044600034CC80E032CCE4E005331E0709F037CCD1
:104470005ACC8FEF7ACC80E078CC8FEFF1CC80E013
:10448000EFCCE4E005331E0709F0F4CC17CD8FEF35
:1044900037CD80E035CD8FEF97CD80E095CD8E176D
:1044A0009F0709F09DCDBFCD8FEFDFCD80E0DDCD43
:1044B0008FEF55CE80E053CE8E179F0709F05BCE6D
:1044C0007DCE8FEF9DCE80E09BCE8FEFFDCE80E046
:1044D000FBCE2E173F0709F003CF28CF8FEF48CF31
:1044E00080E046CF2F923F924F925F926F927F92E1
:1044F0008F929F92AF92BF92CF92DF92EF92FF92F4
:104500000F931F93CF93DF93CDB7DEB76A970FB6A4
:10451000F894DEBF0FBECDBFDC01CB01BF718F832E
:104520009887A987BA87DA01C901BF718B879C87F1
:10453000AD87BE87A80197015F712F87388B498BA4
:104540005A8BD601C501BF718B8B9C8BAD8BBE8BFB
:1045500088A999A9AAA9BBA99C01AD015F712F8B5C
:10456000388F498F5A8F80912C0890912D08A091F7
:104570002E08B0912F080197A105B10509F456C086
:104580001092300881E090E0A0E0B0E080932C0829
:1045900090932D08A0932E08B0932F08EDE2F4E03D
:1045A00025E531E18191482F880F550B660B770B7C
:1045B000D9014D935D936D937D939D01B4E0E533F7
:1045C000FB0781F780E2E5E5F1E1A1E3B8E00190C6
:1045D0000D928A95E1F7609151087091520880918F
:1045E0005308909154080E945F602B013C0120E029
:1045F00030E040E853E40E94AB6187FD02C00C94B8
:10460000B02B20E030E0A901C301B2010E949B63FE
:1046100087FF02C00C94B32BC301B2010E941C623D
:10462000862F0E94340181E08093300851E3252ECB
:1046300058E0352EADE2B4E08D01C101FC0141909E
:10464000519061907190CF01F80141918F01042E3A
:10465000000C550B660B770B44165506660677065D
:1046600011F40C94B62BE1E3F8E04D91042E000C0C
:10467000550B660B770B419351936193719324E033
:10468000A533B20791F7609151087091520880915B
:104690005308909154080E945F602B013C0120E078
:1046A00030E040E853E40E94AB6187FD02C00C9407
:1046B000BD2B20E030E0A901C301B2010E949B6341
:1046C00087FF02C00C94C02BC301B2010E941C6280
:1046D000862F8E010F5F1F4F21E043E064EE73E0F1
:1046E0000E9440016F81788589859A8525E196959C
:1046F0008795779567952A95D1F70E9414188F8131
:104700009885A985BA8532E1B695A795979587953D
:104710003A95D1F745E0880F991F4A95E1F78076E1
:10472000992769857A85637077276860682B792B6C
:10473000072E000C880B990B0E94151782E08983C5
:1047400086E28A8348854B8380912C0890912D08BE
:10475000A0912E08B0912F080197A105B10509F489
:1047600052C01092300881E090E0A0E0B0E0809369
:104770002C0890932D08A0932E08B0932F08EDE2FB
:10478000F4E025EF30E18191482F880F550B660B3F
:10479000770BD9014D935D936D937D939D01B4E0AB
:1047A000E533FB0781F780E2E5EFF0E1A1E3B8E054
:1047B00001900D928A95E1F760915108709152082D
:1047C00080915308909154080E945F602B013C0136
:1047D00020E030E040E853E40E94AB6187FFD3C79C
:1047E00020E030E0A901C301B2010E949B6387FD74
:1047F000CCC7C301B2010E941C62862F0E94340103
:1048000081E080933008ADE2B4E08D0181E398E06F
:10481000FC014190519061907190CF01F80141915C
:104820008F01042E000C550B660B770B44165506B2
:104830006606770609F4ABC7E1E3F8E04D91042E74
:10484000000C550B660B770B419351936193719359
:1048500024E0A533B20791F7609151087091520896
:1048600080915308909154080E945F602B013C0195
:1048700020E030E040E853E40E94AB6187FF8CC742
:1048800020E030E0A901C301B2010E949B6387FDD3
:1048900085C7C301B2010E941C62862F8E010C5F86
:1048A0001F4F21E043E0BE016F5F7F4F0E94400138
:1048B00082E0898387E28A834F814B8380912C0831
:1048C00090912D08A0912E08B0912F080197A10575
:1048D000B10509F452C01092300881E090E0A0E0E8
:1048E000B0E080932C0890932D08A0932E08B093ED
:1048F0002F08EDE2F4E025ED30E18191482F880F9B
:10490000550B660B770BD9014D935D936D937D939A
:104910009D01B4E0E533FB0781F780E2E5EDF0E1CE
:10492000A1E3B8E001900D928A95E1F760915108FA
:104930007091520880915308909154080E945F60D2
:104940004B015C0120E030E040E853E40E94AB61A1
:1049500087FF26C720E030E0A901C501B4010E940D
:104960009B6387FD1FC7C501B4010E941C62862F8F
:104970000E94340181E080933008ADE2B4E08D0103
:1049800081E398E0FC0181909190A190B190CF01DA
:10499000F80141918F01042E000C550B660B770B2B
:1049A00084169506A606B70609F4FEC6E1E3F8E00C
:1049B0004D91042E000C550B660B770B41935193D0
:1049C0006193719324E0A533B20791F76091510888
:1049D0007091520880915308909154080E945F6032
:1049E0004B015C0120E030E040E853E40E94AB6101
:1049F00087FFDFC620E030E0A901C501B4010E94B5
:104A00009B6387FDD8C6C501B4010E941C62862F36
:104A10008E010C5F1F4F21E043E0BE016F5F7F4FAF
:104A20000E9440016B857C858D859E85B5E19695BC
:104A3000879577956795BA95D1F70E9416168B855D
:104A40009C85AD85BE8512E1B695A795979587950E
:104A50001A95D1F705E0880F991F0A95E1F780763E
:104A600099276D857E85637077276860682B792B21
:104A7000072E000C880B990B0E94171582E0898382
:104A80008AE08A834C854B8380912C0890912D0875
:104A9000A0912E08B0912F080197A105B10509F446
:104AA00052C01092300881E090E0A0E0B0E0809326
:104AB0002C0890932D08A0932E08B0932F08EDE2B8
:104AC000F4E025EB30E18191482F880F550B660B00
:104AD000770BD9014D935D936D937D939D01B4E068
:104AE000E533FB0781F780E2E5EBF0E1A1E3B8E015
:104AF00001900D928A95E1F76091510870915208EA
:104B000080915308909154080E945F604B015C01B2
:104B100020E030E040E853E40E94AB6187FF4DC6DF
:104B200020E030E0A901C501B4010E949B6387FD2C
:104B300046C6C501B4010E941C62862F0E94340142
:104B400081E080933008ADE2B4E025E334E08D01EC
:104B500081E398E0FC0181909190A190B190CF0108
:104B6000F80141918F01042E000C550B660B770B59
:104B700084169506A606B70609F423C6E1E3F8E015
:104B80004D91042E000C550B660B770B41935193FE
:104B9000619371932A173B0799F7609151087091BF
:104BA000520880915308909154080E945F604B0115
:104BB0005C0120E030E040E853E40E94AB6187FFF5
:104BC00006C620E030E0A901C501B4010E949B6344
:104BD00087FDFFC5C501B4010E941C62862F8E01AE
:104BE0000C5F1F4F21E043E0BE016F5F7F4F0E94CB
:104BF000400182E089838BE08A832B852B8380911F
:104C00002C0890912D08A0912E08B0912F080197A3
:104C1000A105B10509F451C01092300881E090E07F
:104C2000A0E0B0E080932C0890932D08A0932E086C
:104C3000B0932F08EDE2F4E0A5E9B0E185E394E05C
:104C40004191042E000C550B660B770B4D935D9331
:104C50006D937D938E179F0799F780E2E5E9F0E168
:104C6000A1E3B8E001900D928A95E1F760915108B7
:104C70007091520880915308909154080E945F608F
:104C80006B017C0120E030E040E853E40E94AB611E
:104C900087FFA1C520E030E0A901C701B6010E944D
:104CA0009B6387FD9AC5C701B6010E941C62862FCF
:104CB0000E94340181E080933008ADE2B4E085E3E6
:104CC00094E08D0121E338E0F901C190D190E190A9
:104CD000F1909F01F80141918F01042E000C550BBA
:104CE000660B770BC416D506E606F70609F477C5FA
:104CF000E1E3F8E04D91042E000C550B660B770BA9
:104D000041935193619371938A179B0799F760912F
:104D100051087091520880915308909154080E9454
:104D20005F606B017C0120E030E040E853E40E94CA
:104D3000AB6187FF59C520E030E0A901C701B6018A
:104D40000E949B6387FD52C5C701B6010E941C6289
:104D5000862F8E010C5F1F4F21E043E0BE016F5F85
:104D60007F4F0E9440016F85788989899A89E5E1A2
:104D70009695879577956795EA95D1F70E941814CF
:104D80008F859889A989BA89F2E1B695A7959795F3
:104D90008795FA95D1F7A5E0880F991FAA95E1F7B5
:104DA0008076992769897A89637077276860682B8C
:104DB000792B072E000C880B990B0E94191382E0A7
:104DC000898382E18A83F889FB8380912C08909102
:104DD0002D08A0912E08B0912F080197A105B105CB
:104DE00009F452C01092300881E090E0A0E0B0E0F9
:104DF00080932C0890932D08A0932E08B0932F0831
:104E0000EDE2F4E025E730E18191482F880F550B62
:104E1000660B770BD9014D935D936D937D939D0147
:104E2000B4E0E533FB0781F780E2E5E7F0E1A1E3D9
:104E3000B8E001900D928A95E1F760915108709168
:104E4000520880915308909154080E945F606B0152
:104E50007C0120E030E040E853E40E94AB6187FF32
:104E6000C7C420E030E0A901C701B6010E949B63DE
:104E700087FDC0C4C701B6010E941C62862F0E9434
:104E8000340181E080933008ADE2B4E08D0181E32C
:104E900098E0FC01C190D190E190F190CF01F80130
:104EA00041918F01042E000C550B660B770BC41635
:104EB000D506E606F70609F49FC4E1E3F8E04D9154
:104EC000042E000C550B660B770B419351936193A5
:104ED000719324E0A533B20791F760915108709166
:104EE000520880915308909154080E945F606B01B2
:104EF0007C0120E030E040E853E40E94AB6187FF92
:104F000080C420E030E0A901C701B6010E949B6384
:104F100087FD79C4C701B6010E941C62862F8E01ED
:104F20000C5F1F4F21E043E0BE016F5F7F4F0E9487
:104F3000400182E0898383E18A834F854B8380919E
:104F40002C0890912D08A0912E08B0912F08019760
:104F5000A105B10509F451C01092300881E090E03C
:104F6000A0E0B0E080932C0890932D08A0932E0829
:104F7000B0932F08EDE2F4E0A5E5B0E185E394E01D
:104F80004191042E000C550B660B770B4D935D93EE
:104F90006D937D938E179F0799F780E2E5E5F0E129
:104FA000A1E3B8E001900D928A95E1F76091510874
:104FB0007091520880915308909154080E945F604C
:104FC0006B017C0120E030E040E853E40E94AB61DB
:104FD00087FF1BC420E030E0A901C701B6010E9491
:104FE0009B6387FD14C4C701B6010E941C62862F13
:104FF0000E94340181E080933008ADE2B4E08D017D
:1050000081E398E0FC01C190D190E190F190CF0153
:10501000F80141918F01042E000C550B660B770BA4
:10502000C416D506E606F70609F4F3C3E1E3F8E093
:105030004D91042E000C550B660B770B4193519349
:105040006193719324E0A533B20791F76091510801
:105050007091520880915308909154080E945F60AB
:105060006B017C0120E030E040E853E40E94AB613A
:1050700087FFD4C320E030E0A901C701B6010E9438
:105080009B6387FDCDC3C701B6010E941C62862FBA
:105090008E010C5F1F4F21E043E0BE016F5F7F4F29
:1050A0000E9440016B897C898D899E8955E1969586
:1050B0008795779567955A95D1F70E941A128B8933
:1050C0009C89AD89BE8962E1B695A795979587952C
:1050D0006A95D1F775E0880F991F7A95E1F7807688
:1050E00099276D897E89637077276860682B792B93
:1050F000072E000C880B990B0E941B1182E08983FC
:1051000086E18A834C894B8380912C0890912D08ED
:10511000A0912E08B0912F080197A105B10509F4BF
:1051200051C01092300881E090E0A0E0B0E08093A0
:105130002C0890932D08A0932E08B0932F08EDE231
:10514000F4E0A5E3B0E185E394E04191042E000C86
:10515000550B660B770B4D935D936D937D938E1777
:105160009F0799F780E2E5E3F0E1A1E3B8E0019061
:105170000D928A95E1F760915108709152088091E3
:105180005308909154080E945F606B017C0120E0FD
:1051900030E040E853E40E94AB6187FF43C320E066
:1051A00030E0A901C701B6010E949B6387FD3CC3A3
:1051B000C701B6010E941C62862F0E94340181E063
:1051C00080933008ADE2B4E08D0181E398E0FC010A
:1051D000C190D190E190F190CF01F80141918F0100
:1051E000042E000C550B660B770BC416D506E6068D
:1051F000F70609F41BC3E1E3F8E04D91042E000C1F
:10520000550B660B770B419351936193719324E097
:10521000A533B20791F760915108709152088091BF
:105220005308909154080E945F606B017C0120E05C
:1052300030E040E853E40E94AB6187FFFCC220E00D
:1052400030E0A901C701B6010E949B6387FDF5C24A
:10525000C701B6010E941C62862F8E010C5F1F4F92
:1052600021E043E0BE016F5F7F4F0E94400182E07A
:10527000898387E18A834B894B8380912C089091A5
:105280002D08A0912E08B0912F080197A105B10516
:1052900009F453C01092300881E090E0A0E0B0E043
:1052A00080932C0890932D08A0932E08B0932F087C
:1052B000EDE2F4E025E130E145E354E08191C82ED0
:1052C000880FDD08EE08FF08D901CD92DD92ED923E
:1052D000FD929D014E175F0789F780E2E5E1F0E15D
:1052E000A1E3B8E001900D928A95E1F76091510831
:1052F0007091520880915308909154080E945F6009
:105300006B017C0120E030E040E853E40E94AB6197
:1053100087FF95C220E030E0A901C701B6010E94D5
:105320009B6387FD8EC2C701B6010E941C62862F57
:105330000E94340181E080933008ADE2B4E085E35F
:1053400094E08D0121E338E0F901C190D190E19022
:10535000F1909F01F80141918F01042E000C550B33
:10536000660B770BC416D506E606F70609F46BC282
:10537000E1E3F8E04D91042E000C550B660B770B22
:1053800041935193619371938A179B0799F76091A9
:1053900051087091520880915308909154080E94CE
:1053A0005F606B017C0120E030E040E853E40E9444
:1053B000AB6187FF4DC220E030E0A901C701B60113
:1053C0000E949B6387FD46C2C701B6010E941C6212
:1053D000862F8E010C5F1F4F21E043E0BE016F5FFF
:1053E0007F4F0E9440016F89788D898D9A8D25E1CC
:1053F00096958795779567952A95D1F70E941C1009
:105400008F89988DA98DBA8D32E1B695A79597951C
:1054100087953A95D1F745E0880F991F4A95E1F7AE
:1054200080769927698D7A8D637077276860682BFD
:10543000792B072E000C880B990B0E941D0F82E020
:1054400089838AE18A83F88DFB8380912C0890916F
:105450002D08A0912E08B0912F080197A105B10544
:1054600009F452C01092300881E090E0A0E0B0E072
:1054700080932C0890932D08A0932E08B0932F08AA
:10548000EDE2F4E025EF3FE08191482F880F550BC6
:10549000660B770BD9014D935D936D937D939D01C1
:1054A000B4E0E533FB0781F780E2E5EFFFE0A1E33D
:1054B000B8E001900D928A95E1F7609151087091E2
:1054C000520880915308909154080E945F606B01CC
:1054D0007C0120E030E040E853E40E94AB6187FFAC
:1054E000BBC120E030E0A901C701B6010E949B6367
:1054F00087FDB4C1C701B6010E941C62862F0E94BD
:10550000340181E080933008ADE2B4E085E394E0BB
:105510008D0121E338E0F901C190D190E190F19043
:105520009F01F80141918F01042E000C550B660B71
:10553000770BC416D506E606F70609F491C1E1E338
:10554000F8E04D91042E000C550B660B770B419340
:105550005193619371938A179B0799F76091510852
:105560007091520880915308909154080E945F6096
:105570006B017C0120E030E040E853E40E94AB6125
:1055800087FF73C120E030E0A901C701B6010E9486
:105590009B6387FD6CC1C701B6010E941C62862F08
:1055A0008E010C5F1F4F21E043E0BE016F5F7F4F14
:1055B0000E94400182E089838BE18A83FF89FB831B
:1055C00080912C0890912D08A0912E08B0912F0861
:1055D0000197A105B10509F453C01092300881E08C
:1055E00090E0A0E0B0E080932C0890932D08A09369
:1055F0002E08B0932F08EDE2F4E025ED3FE045E3FF
:1056000054E08191C82E880FDD08EE08FF08D9010B
:10561000CD92DD92ED92FD929D014E175F0789F7C5
:1056200080E2E5EDFFE0A1E3B8E001900D928A95FC
:10563000E1F7609151087091520880915308909160
:1056400054080E945F606B017C0120E030E040E87C
:1056500053E40E94AB6187FF0CC120E030E0A90158
:10566000C701B6010E949B6387FD05C1C701B60152
:105670000E941C62862F0E94340181E080933008D2
:10568000ADE2B4E025E334E08D0181E398E0FC0174
:10569000C190D190E190F190CF01F80141918F013B
:1056A000042E000C550B660B770BC416D506E606C8
:1056B000F70609F4E2C04D91042E000C550B660B61
:1056C000770BF10141935193619371931F01F4E0C2
:1056D000A533BF0781F760915108709152088091FE
:1056E0005308909154080E945F606B017C0120E098
:1056F00030E040E853E40E94AB6187FFC3C020E084
:1057000030E0A901C701B6010E949B6387FDBCC0C0
:10571000C701B6010E941C62862F8E010C5F1F4FCD
:1057200021E043E0BE016F5F7F4F0E9440016A9617
:105730000FB6F894DEBF0FBECDBFDF91CF911F91A2
:105740000F91FF90EF90DF90CF90BF90AF909F9020
:105750008F907F906F905F904F903F902F90089523
:105760008FEF0C94112380E00C941123E553F44047
:1057700011F00C941E230C9443238FEF0C94692397
:1057800080E00C9469238FEF39C880E037C8E55377
:10579000F44009F03DC860C88FEF80C880E07EC843
:1057A0008FEFE6C880E0E4C8E553F44009F0EAC8AA
:1057B0000DC98FEF2DC980E02BC98FEFBFC980E0E5
:1057C000BDC9F4E005331F0709F0C4C9E6C98FEF6E
:1057D00006CA80E004CA8FEF6BCA80E069CA8E17E0
:1057E0009F0709F071CA93CA8FEFB3CA80E0B1CAAC
:1057F0008FEF45CB80E043CBE553F44009F049CB34
:105800006CCB8FEF8CCB80E08ACB8FEFF1CB80E03D
:10581000EFCBE553F44009F0F5CB18CC8FEF38CC43
:1058200080E036CC8FEFC9CC80E0C7CCE553F440A4
:1058300009F0CDCCF0CC8FEF10CD80E00ECD8FEF06
:1058400077CD80E075CD8E179F0709F07DCD9FCD78
:105850008FEFBFCD80E0BDCD8FEF51CE80E04FCE3A
:105860008E179F0709F057CE79CE8FEF99CE80E043
:1058700097CE8FEF00CF80E0FECE2E173F0709F0C6
:1058800006CF29CF8FEF49CF80E047CFAF92BF92AD
:10589000CF92DF92EF92FF920F931F93CF93DF93FC
:1058A00000D000D0CDB7DEB782E0898385E08A835F
:1058B0006B8380912C0890912D08A0912E08B091B7
:1058C0002F080197A105B10509F45AC010923008BC
:1058D00081E090E0A0E0B0E080932C0890932D0848
:1058E000A0932E08B0932F08EDE2F4E025E53AE00E
:1058F0008191482F880F550B660B770BD9014D937B
:105900005D936D937D939D01B4E0E533FB0781F7D3
:1059100080E2E5E5FAE0A1E3B8E001900D928A9516
:10592000E1F760915108709152088091530890916D
:1059300054080E945F606B017C01C0925D13D0929D
:105940005E13E0925F13F092601320E030E040E8D5
:1059500053E40E94AB6187FF8BC020E030E0A901D7
:10596000C701B6010E949B6387FD84C0C701B601D1
:105970000E941C62862F0E94340181E080933008CF
:1059800021E338E0ADE2B4E085E394E05D01890114
:10599000F801C190D190E190F1908F01F501419112
:1059A0005F01042E000C550B660B770BC416D50651
:1059B000E606F70609F460C04D91042E000C550B65
:1059C000660B770BF90141935193619371939F019A
:1059D0008A179B0789F7609151087091520880914E
:1059E00053089091540860935D1370935E138093F5
:1059F0005F13909360130E945F606B017C01C09203
:105A00005D13D0925E13E0925F13F092601320E07A
:105A100030E040E853E40E94AB6187FF32C020E0F1
:105A200030E0A901C701B6010E949B6387FD2BC02E
:105A3000C701B6010E941C62862F8E010C5F1F4FAA
:105A400021E043E0BE016F5F7F4F0E944001269638
:105A50000FB6F894DEBF0FBECDBFDF91CF911F917F
:105A60000F91FF90EF90DF90CF90BF90AF9008958F
:105A70008FEF81CF80E07FCF8E179F0709F088CF0F
:105A8000AACF8FEFDACF80E0D8CFAF92BF92CF927C
:105A9000DF92EF92FF920F931F93CF93DF9300D08B
:105AA00000D0CDB7DEB782E0898384E08A836B8340
:105AB00080912C0890912D08A0912E08B0912F086C
:105AC0000197A105B10509F45AC01092300881E090
:105AD00090E0A0E0B0E080932C0890932D08A09374
